{
  "_format": "hh-sol-artifact-1",
  "contractName": "DonationContract",
  "sourceName": "contracts/donation.sol",
  "abi": [
    {
      "inputs": [
        {
          "internalType": "address",
          "name": "_campaignReceiver",
          "type": "address"
        },
        {
          "internalType": "string",
          "name": "_campaignIpfs",
          "type": "string"
        },
        {
          "internalType": "uint256",
          "name": "_amountRequesting",
          "type": "uint256"
        },
        {
          "internalType": "uint256",
          "name": "_campaignEndTime",
          "type": "uint256"
        }
      ],
      "stateMutability": "nonpayable",
      "type": "constructor"
    },
    {
      "anonymous": false,
      "inputs": [
        {
          "indexed": true,
          "internalType": "address",
          "name": "campaignAddress",
          "type": "address"
        }
      ],
      "name": "CampaignEnded",
      "type": "event"
    },
    {
      "anonymous": false,
      "inputs": [
        {
          "indexed": true,
          "internalType": "address",
          "name": "sender",
          "type": "address"
        },
        {
          "indexed": false,
          "internalType": "uint256",
          "name": "amount",
          "type": "uint256"
        }
      ],
      "name": "Donation",
      "type": "event"
    },
    {
      "anonymous": false,
      "inputs": [
        {
          "indexed": false,
          "internalType": "uint256",
          "name": "amountToWithdraw",
          "type": "uint256"
        }
      ],
      "name": "UnknownDonation",
      "type": "event"
    },
    {
      "inputs": [],
      "name": "admistrator",
      "outputs": [
        {
          "internalType": "address",
          "name": "",
          "type": "address"
        }
      ],
      "stateMutability": "view",
      "type": "function"
    },
    {
      "inputs": [
        {
          "internalType": "uint256",
          "name": "amount",
          "type": "uint256"
        },
        {
          "internalType": "uint8",
          "name": "fee",
          "type": "uint8"
        }
      ],
      "name": "afterFee",
      "outputs": [
        {
          "internalType": "uint256",
          "name": "",
          "type": "uint256"
        },
        {
          "internalType": "uint256",
          "name": "",
          "type": "uint256"
        }
      ],
      "stateMutability": "pure",
      "type": "function"
    },
    {
      "inputs": [],
      "name": "amountRequesting",
      "outputs": [
        {
          "internalType": "uint256",
          "name": "",
          "type": "uint256"
        }
      ],
      "stateMutability": "view",
      "type": "function"
    },
    {
      "inputs": [],
      "name": "campaignEndTime",
      "outputs": [
        {
          "internalType": "uint256",
          "name": "",
          "type": "uint256"
        }
      ],
      "stateMutability": "view",
      "type": "function"
    },
    {
      "inputs": [],
      "name": "campaignIpfs",
      "outputs": [
        {
          "internalType": "string",
          "name": "",
          "type": "string"
        }
      ],
      "stateMutability": "view",
      "type": "function"
    },
    {
      "inputs": [],
      "name": "campaignOpen",
      "outputs": [
        {
          "internalType": "bool",
          "name": "",
          "type": "bool"
        }
      ],
      "stateMutability": "view",
      "type": "function"
    },
    {
      "inputs": [],
      "name": "campaignReceiver",
      "outputs": [
        {
          "internalType": "address",
          "name": "",
          "type": "address"
        }
      ],
      "stateMutability": "view",
      "type": "function"
    },
    {
      "inputs": [],
      "name": "campaignSuccess",
      "outputs": [
        {
          "internalType": "bool",
          "name": "",
          "type": "bool"
        }
      ],
      "stateMutability": "view",
      "type": "function"
    },
    {
      "inputs": [],
      "name": "closeCampaign",
      "outputs": [],
      "stateMutability": "nonpayable",
      "type": "function"
    },
    {
      "inputs": [],
      "name": "donate",
      "outputs": [],
      "stateMutability": "payable",
      "type": "function"
    },
    {
      "inputs": [
        {
          "internalType": "address",
          "name": "",
          "type": "address"
        }
      ],
      "name": "donations",
      "outputs": [
        {
          "internalType": "uint256",
          "name": "",
          "type": "uint256"
        }
      ],
      "stateMutability": "view",
      "type": "function"
    },
    {
      "inputs": [
        {
          "internalType": "uint256",
          "name": "",
          "type": "uint256"
        }
      ],
      "name": "donators",
      "outputs": [
        {
          "internalType": "address",
          "name": "",
          "type": "address"
        }
      ],
      "stateMutability": "view",
      "type": "function"
    },
    {
      "inputs": [],
      "name": "missingBalanceToTarget",
      "outputs": [
        {
          "internalType": "uint256",
          "name": "",
          "type": "uint256"
        }
      ],
      "stateMutability": "view",
      "type": "function"
    },
    {
      "inputs": [],
      "name": "refund",
      "outputs": [],
      "stateMutability": "payable",
      "type": "function"
    },
    {
      "inputs": [],
      "name": "withdrawDonations",
      "outputs": [],
      "stateMutability": "payable",
      "type": "function"
    },
    {
      "stateMutability": "payable",
      "type": "receive"
    }
  ],
  "bytecode": "0x61010060405260018060006101000a81548160ff02191690831515021790555060006001806101000a81548160ff0219169083151502179055503480156200004657600080fd5b506040516200210d3803806200210d83398181016040528101906200006c919062000407565b80603c426200007c9190620004c7565b8111620000c0576040517f08c379a0000000000000000000000000000000000000000000000000000000008152600401620000b79062000589565b60405180910390fd5b6000831162000106576040517f08c379a0000000000000000000000000000000000000000000000000000000008152600401620000fd9062000621565b60405180910390fd5b8473ffffffffffffffffffffffffffffffffffffffff163373ffffffffffffffffffffffffffffffffffffffff16036200013f57600080fd5b3373ffffffffffffffffffffffffffffffffffffffff1660808173ffffffffffffffffffffffffffffffffffffffff16815250508473ffffffffffffffffffffffffffffffffffffffff1660a08173ffffffffffffffffffffffffffffffffffffffff16815250508360009081620001b8919062000884565b508260c081815250508160e0818152505050505050506200096b565b6000604051905090565b600080fd5b600080fd5b600073ffffffffffffffffffffffffffffffffffffffff82169050919050565b60006200021582620001e8565b9050919050565b620002278162000208565b81146200023357600080fd5b50565b60008151905062000247816200021c565b92915050565b600080fd5b600080fd5b6000601f19601f8301169050919050565b7f4e487b7100000000000000000000000000000000000000000000000000000000600052604160045260246000fd5b620002a28262000257565b810181811067ffffffffffffffff82111715620002c457620002c362000268565b5b80604052505050565b6000620002d9620001d4565b9050620002e7828262000297565b919050565b600067ffffffffffffffff8211156200030a576200030962000268565b5b620003158262000257565b9050602081019050919050565b60005b838110156200034257808201518184015260208101905062000325565b60008484015250505050565b6000620003656200035f84620002ec565b620002cd565b90508281526020810184848401111562000384576200038362000252565b5b6200039184828562000322565b509392505050565b600082601f830112620003b157620003b06200024d565b5b8151620003c38482602086016200034e565b91505092915050565b6000819050919050565b620003e181620003cc565b8114620003ed57600080fd5b50565b6000815190506200040181620003d6565b92915050565b60008060008060808587031215620004245762000423620001de565b5b6000620004348782880162000236565b945050602085015167ffffffffffffffff811115620004585762000457620001e3565b5b620004668782880162000399565b93505060406200047987828801620003f0565b92505060606200048c87828801620003f0565b91505092959194509250565b7f4e487b7100000000000000000000000000000000000000000000000000000000600052601160045260246000fd5b6000620004d482620003cc565b9150620004e183620003cc565b9250828201905080821115620004fc57620004fb62000498565b5b92915050565b600082825260208201905092915050565b7f43616d706169676e206d757374206265206c69766520666f72206174206c656160008201527f737420323420686f757273000000000000000000000000000000000000000000602082015250565b600062000571602b8362000502565b91506200057e8262000513565b604082019050919050565b60006020820190508181036000830152620005a48162000562565b9050919050565b7f54686520616d6f756e7420726571756573746564206d7573742062652067726560008201527f61746572207468616e207a65726f000000000000000000000000000000000000602082015250565b600062000609602e8362000502565b91506200061682620005ab565b604082019050919050565b600060208201905081810360008301526200063c81620005fa565b9050919050565b600081519050919050565b7f4e487b7100000000000000000000000000000000000000000000000000000000600052602260045260246000fd5b600060028204905060018216806200069657607f821691505b602082108103620006ac57620006ab6200064e565b5b50919050565b60008190508160005260206000209050919050565b60006020601f8301049050919050565b600082821b905092915050565b600060088302620007167fffffffffffffffffffffffffffffffffffffffffffffffffffffffffffffffff82620006d7565b620007228683620006d7565b95508019841693508086168417925050509392505050565b6000819050919050565b6000620007656200075f6200075984620003cc565b6200073a565b620003cc565b9050919050565b6000819050919050565b620007818362000744565b6200079962000790826200076c565b848454620006e4565b825550505050565b600090565b620007b0620007a1565b620007bd81848462000776565b505050565b5b81811015620007e557620007d9600082620007a6565b600181019050620007c3565b5050565b601f8211156200083457620007fe81620006b2565b6200080984620006c7565b8101602085101562000819578190505b620008316200082885620006c7565b830182620007c2565b50505b505050565b600082821c905092915050565b6000620008596000198460080262000839565b1980831691505092915050565b600062000874838362000846565b9150826002028217905092915050565b6200088f8262000643565b67ffffffffffffffff811115620008ab57620008aa62000268565b5b620008b782546200067d565b620008c4828285620007e9565b600060209050601f831160018114620008fc5760008415620008e7578287015190505b620008f3858262000866565b86555062000963565b601f1984166200090c86620006b2565b60005b8281101562000936578489015182556001820191506020850194506020810190506200090f565b8683101562000956578489015162000952601f89168262000846565b8355505b6001600288020188555050505b505050505050565b60805160a05160c05160e051611722620009eb6000396000818161010a0152818161051001528181610a6c0152610b380152600081816101b0015281816104ec01528181610a1c01528181610bde01528181610d940152610dc50152600081816107ec0152818161083901526109640152600061078901526117226000f3fe6080604052600436106100ec5760003560e01c8063accc58001161008a578063d7557f1811610059578063d7557f1814610460578063d989a6ce14610477578063ed88c68e146104b5578063f05cb12e146104bf576102a0565b8063accc5800146103c3578063cc2c193a146103ee578063cc6cb19a14610419578063ce1b088a14610456576102a0565b806360f5ac86116100c657806360f5ac861461030557806362d6fe0014610330578063aab9caa41461035b578063ac62f56614610386576102a0565b80631182b179146102a557806312498a70146102d0578063590e1ae3146102fb576102a0565b366102a057600160009054906101000a900460ff16801561012c57507f000000000000000000000000000000000000000000000000000000000000000042105b61016b576040517f08c379a000000000000000000000000000000000000000000000000000000000815260040161016290610e51565b60405180910390fd5b600034116101ae576040517f08c379a00000000000000000000000000000000000000000000000000000000081526004016101a590610ee3565b60405180910390fd5b7f0000000000000000000000000000000000000000000000000000000000000000471115610211576040517f08c379a000000000000000000000000000000000000000000000000000000000815260040161020890610f75565b60405180910390fd5b34600360003373ffffffffffffffffffffffffffffffffffffffff1673ffffffffffffffffffffffffffffffffffffffff16815260200190815260200160002060008282546102609190610fce565b925050819055507f8e7cfdefcf8c12f8dccd26c94f385f22d656f8eafef6e8703d3b50a19dddf89d346040516102969190611011565b60405180910390a1005b600080fd5b3480156102b157600080fd5b506102ba6104ea565b6040516102c79190611011565b60405180910390f35b3480156102dc57600080fd5b506102e561050e565b6040516102f29190611011565b60405180910390f35b610303610532565b005b34801561031157600080fd5b5061031a6106e6565b6040516103279190611047565b60405180910390f35b34801561033c57600080fd5b506103456106f9565b60405161035291906110e1565b60405180910390f35b34801561036757600080fd5b50610370610787565b60405161037d9190611144565b60405180910390f35b34801561039257600080fd5b506103ad60048036038101906103a89190611190565b6107ab565b6040516103ba9190611144565b60405180910390f35b3480156103cf57600080fd5b506103d86107ea565b6040516103e59190611144565b60405180910390f35b3480156103fa57600080fd5b5061040361080e565b6040516104109190611047565b60405180910390f35b34801561042557600080fd5b50610440600480360381019061043b91906111e9565b61081f565b60405161044d9190611011565b60405180910390f35b61045e610837565b005b34801561046c57600080fd5b506104756109cb565b005b34801561048357600080fd5b5061049e6004803603810190610499919061124f565b610aea565b6040516104ac92919061128f565b60405180910390f35b6104bd610b1f565b005b3480156104cb57600080fd5b506104d4610d90565b6040516104e19190611011565b60405180910390f35b7f000000000000000000000000000000000000000000000000000000000000000081565b7f000000000000000000000000000000000000000000000000000000000000000081565b600160009054906101000a900460ff1615610582576040517f08c379a000000000000000000000000000000000000000000000000000000000815260040161057990611304565b60405180910390fd5b60018054906101000a900460ff16156105d0576040517f08c379a00000000000000000000000000000000000000000000000000000000081526004016105c790611396565b60405180910390fd5b6000600360003373ffffffffffffffffffffffffffffffffffffffff1673ffffffffffffffffffffffffffffffffffffffff16815260200190815260200160002054905060008111610657576040517f08c379a000000000000000000000000000000000000000000000000000000000815260040161064e90611402565b60405180910390fd5b6000600360003373ffffffffffffffffffffffffffffffffffffffff1673ffffffffffffffffffffffffffffffffffffffff168152602001908152602001600020819055503373ffffffffffffffffffffffffffffffffffffffff166108fc829081150290604051600060405180830381858888f193505050501580156106e2573d6000803e3d6000fd5b5050565b600160009054906101000a900460ff1681565b6000805461070690611451565b80601f016020809104026020016040519081016040528092919081815260200182805461073290611451565b801561077f5780601f106107545761010080835404028352916020019161077f565b820191906000526020600020905b81548152906001019060200180831161076257829003601f168201915b505050505081565b7f000000000000000000000000000000000000000000000000000000000000000081565b600281815481106107bb57600080fd5b906000526020600020016000915054906101000a900473ffffffffffffffffffffffffffffffffffffffff1681565b7f000000000000000000000000000000000000000000000000000000000000000081565b60018054906101000a900460ff1681565b60036020528060005260406000206000915090505481565b7f000000000000000000000000000000000000000000000000000000000000000073ffffffffffffffffffffffffffffffffffffffff163373ffffffffffffffffffffffffffffffffffffffff16146108c5576040517f08c379a00000000000000000000000000000000000000000000000000000000081526004016108bc906114ce565b60405180910390fd5b600160009054906101000a900460ff1615610915576040517f08c379a000000000000000000000000000000000000000000000000000000000815260040161090c90611304565b60405180910390fd5b60018054906101000a900460ff16610962576040517f08c379a000000000000000000000000000000000000000000000000000000000815260040161095990611560565b60405180910390fd5b7f000000000000000000000000000000000000000000000000000000000000000073ffffffffffffffffffffffffffffffffffffffff166108fc479081150290604051600060405180830381858888f193505050501580156109c8573d6000803e3d6000fd5b50565b600160009054906101000a900460ff16610a1a576040517f08c379a0000000000000000000000000000000000000000000000000000000008152600401610a11906115cc565b60405180910390fd5b7f00000000000000000000000000000000000000000000000000000000000000004710156001806101000a81548160ff02191690831515021790555060018054906101000a900460ff1680610a8e57507f000000000000000000000000000000000000000000000000000000000000000042115b610acd576040517f08c379a0000000000000000000000000000000000000000000000000000000008152600401610ac490611638565b60405180910390fd5b6000600160006101000a81548160ff021916908315150217905550565b60008060008360ff1685610afe9190611687565b905060008186610b0e91906116b8565b905080829350935050509250929050565b600160009054906101000a900460ff168015610b5a57507f000000000000000000000000000000000000000000000000000000000000000042105b610b99576040517f08c379a0000000000000000000000000000000000000000000000000000000008152600401610b9090610e51565b60405180910390fd5b60003411610bdc576040517f08c379a0000000000000000000000000000000000000000000000000000000008152600401610bd390610ee3565b60405180910390fd5b7f0000000000000000000000000000000000000000000000000000000000000000471115610c3f576040517f08c379a0000000000000000000000000000000000000000000000000000000008152600401610c3690610f75565b60405180910390fd5b6000600360003373ffffffffffffffffffffffffffffffffffffffff1673ffffffffffffffffffffffffffffffffffffffff1681526020019081526020016000205403610cea576002339080600181540180825580915050600190039060005260206000200160009091909190916101000a81548173ffffffffffffffffffffffffffffffffffffffff021916908373ffffffffffffffffffffffffffffffffffffffff1602179055505b34600360003373ffffffffffffffffffffffffffffffffffffffff1673ffffffffffffffffffffffffffffffffffffffff1681526020019081526020016000206000828254610d399190610fce565b925050819055503373ffffffffffffffffffffffffffffffffffffffff167f5d8bc849764969eb1bcc6d0a2f55999d0167c1ccec240a4f39cf664ca9c4148e34604051610d869190611011565b60405180910390a2565b60007f00000000000000000000000000000000000000000000000000000000000000004710610dc25760009050610df1565b477f0000000000000000000000000000000000000000000000000000000000000000610dee91906116b8565b90505b90565b600082825260208201905092915050565b7f43616d706169676e20656e646564000000000000000000000000000000000000600082015250565b6000610e3b600e83610df4565b9150610e4682610e05565b602082019050919050565b60006020820190508181036000830152610e6a81610e2e565b9050919050565b7f54686520646f6e6174696f6e2076616c7565206d75737420626520677265617460008201527f6572207468616e207a65726f0000000000000000000000000000000000000000602082015250565b6000610ecd602c83610df4565b9150610ed882610e71565b604082019050919050565b60006020820190508181036000830152610efc81610ec0565b9050919050565b7f446f6e6174696f6e20657863656564732074686520616d6f756e74207265717560008201527f6573746564000000000000000000000000000000000000000000000000000000602082015250565b6000610f5f602583610df4565b9150610f6a82610f03565b604082019050919050565b60006020820190508181036000830152610f8e81610f52565b9050919050565b6000819050919050565b7f4e487b7100000000000000000000000000000000000000000000000000000000600052601160045260246000fd5b6000610fd982610f95565b9150610fe483610f95565b9250828201905080821115610ffc57610ffb610f9f565b5b92915050565b61100b81610f95565b82525050565b60006020820190506110266000830184611002565b92915050565b60008115159050919050565b6110418161102c565b82525050565b600060208201905061105c6000830184611038565b92915050565b600081519050919050565b60005b8381101561108b578082015181840152602081019050611070565b60008484015250505050565b6000601f19601f8301169050919050565b60006110b382611062565b6110bd8185610df4565b93506110cd81856020860161106d565b6110d681611097565b840191505092915050565b600060208201905081810360008301526110fb81846110a8565b905092915050565b600073ffffffffffffffffffffffffffffffffffffffff82169050919050565b600061112e82611103565b9050919050565b61113e81611123565b82525050565b60006020820190506111596000830184611135565b92915050565b600080fd5b61116d81610f95565b811461117857600080fd5b50565b60008135905061118a81611164565b92915050565b6000602082840312156111a6576111a561115f565b5b60006111b48482850161117b565b91505092915050565b6111c681611123565b81146111d157600080fd5b50565b6000813590506111e3816111bd565b92915050565b6000602082840312156111ff576111fe61115f565b5b600061120d848285016111d4565b91505092915050565b600060ff82169050919050565b61122c81611216565b811461123757600080fd5b50565b60008135905061124981611223565b92915050565b600080604083850312156112665761126561115f565b5b60006112748582860161117b565b92505060206112858582860161123a565b9150509250929050565b60006040820190506112a46000830185611002565b6112b16020830184611002565b9392505050565b7f5468652063616d706169676e206973207374696c6c206f70656e000000000000600082015250565b60006112ee601a83610df4565b91506112f9826112b8565b602082019050919050565b6000602082019050818103600083015261131d816112e1565b9050919050565b7f5468652063616d706169676e207265616368656420746865207265717569726560008201527f6420616d6f756e74000000000000000000000000000000000000000000000000602082015250565b6000611380602883610df4565b915061138b82611324565b604082019050919050565b600060208201905081810360008301526113af81611373565b9050919050565b7f4e6f20646f6e6174696f6e7320746f2077697468647261770000000000000000600082015250565b60006113ec601883610df4565b91506113f7826113b6565b602082019050919050565b6000602082019050818103600083015261141b816113df565b9050919050565b7f4e487b7100000000000000000000000000000000000000000000000000000000600052602260045260246000fd5b6000600282049050600182168061146957607f821691505b60208210810361147c5761147b611422565b5b50919050565b7f596f7520617265206e6f74207468652072656365697665720000000000000000600082015250565b60006114b8601883610df4565b91506114c382611482565b602082019050919050565b600060208201905081810360008301526114e7816114ab565b9050919050565b7f5468652063616d706169676e20646964206e6f7420726561636820746865207260008201527f6571756972656420616d6f756e74000000000000000000000000000000000000602082015250565b600061154a602e83610df4565b9150611555826114ee565b604082019050919050565b600060208201905081810360008301526115798161153d565b9050919050565b7f43616d706169676e20697320616c726561647920636c6f736564207965740000600082015250565b60006115b6601e83610df4565b91506115c182611580565b602082019050919050565b600060208201905081810360008301526115e5816115a9565b9050919050565b7f5468652063616d706169676e2063616e206e6f7420626520636c6f7365640000600082015250565b6000611622601e83610df4565b915061162d826115ec565b602082019050919050565b6000602082019050818103600083015261165181611615565b9050919050565b7f4e487b7100000000000000000000000000000000000000000000000000000000600052601260045260246000fd5b600061169282610f95565b915061169d83610f95565b9250826116ad576116ac611658565b5b828204905092915050565b60006116c382610f95565b91506116ce83610f95565b92508282039050818111156116e6576116e5610f9f565b5b9291505056fea2646970667358221220dc56971ec935c3d887a02d1894efabacdd04904f417bd7dcb1252305b240b11164736f6c63430008130033",
  "linkReferences": {},
  "deployedLinkReferences": {}
}