{
  "_format": "hh-sol-artifact-1",
  "contractName": "DonationPlatformContract",
  "sourceName": "contracts/donationPlatform.sol",
  "abi": [
    {
      "inputs": [],
      "stateMutability": "nonpayable",
      "type": "constructor"
    },
    {
      "anonymous": false,
      "inputs": [
        {
          "indexed": true,
          "internalType": "address",
          "name": "admistrator",
          "type": "address"
        },
        {
          "indexed": true,
          "internalType": "address",
          "name": "receiver",
          "type": "address"
        },
        {
          "indexed": true,
          "internalType": "address",
          "name": "campaignsAddress",
          "type": "address"
        }
      ],
      "name": "CampaignCreated",
      "type": "event"
    },
    {
      "anonymous": false,
      "inputs": [
        {
          "indexed": true,
          "internalType": "bytes32",
          "name": "role",
          "type": "bytes32"
        },
        {
          "indexed": true,
          "internalType": "bytes32",
          "name": "previousAdminRole",
          "type": "bytes32"
        },
        {
          "indexed": true,
          "internalType": "bytes32",
          "name": "newAdminRole",
          "type": "bytes32"
        }
      ],
      "name": "RoleAdminChanged",
      "type": "event"
    },
    {
      "anonymous": false,
      "inputs": [
        {
          "indexed": true,
          "internalType": "bytes32",
          "name": "role",
          "type": "bytes32"
        },
        {
          "indexed": true,
          "internalType": "address",
          "name": "account",
          "type": "address"
        },
        {
          "indexed": true,
          "internalType": "address",
          "name": "sender",
          "type": "address"
        }
      ],
      "name": "RoleGranted",
      "type": "event"
    },
    {
      "anonymous": false,
      "inputs": [
        {
          "indexed": true,
          "internalType": "bytes32",
          "name": "role",
          "type": "bytes32"
        },
        {
          "indexed": true,
          "internalType": "address",
          "name": "account",
          "type": "address"
        },
        {
          "indexed": true,
          "internalType": "address",
          "name": "sender",
          "type": "address"
        }
      ],
      "name": "RoleRevoked",
      "type": "event"
    },
    {
      "inputs": [],
      "name": "CAMPAIGN_CREATOR",
      "outputs": [
        {
          "internalType": "bytes32",
          "name": "",
          "type": "bytes32"
        }
      ],
      "stateMutability": "view",
      "type": "function"
    },
    {
      "inputs": [],
      "name": "DEFAULT_ADMIN_ROLE",
      "outputs": [
        {
          "internalType": "bytes32",
          "name": "",
          "type": "bytes32"
        }
      ],
      "stateMutability": "view",
      "type": "function"
    },
    {
      "inputs": [
        {
          "internalType": "address",
          "name": "",
          "type": "address"
        },
        {
          "internalType": "uint256",
          "name": "",
          "type": "uint256"
        }
      ],
      "name": "campaignsAddress",
      "outputs": [
        {
          "internalType": "address",
          "name": "",
          "type": "address"
        }
      ],
      "stateMutability": "view",
      "type": "function"
    },
    {
      "inputs": [
        {
          "internalType": "address",
          "name": "_campaignReceiver",
          "type": "address"
        },
        {
          "internalType": "string",
          "name": "_campaignIpfs",
          "type": "string"
        },
        {
          "internalType": "uint256",
          "name": "_amountRequesting",
          "type": "uint256"
        },
        {
          "internalType": "uint256",
          "name": "_campaignEndTime",
          "type": "uint256"
        }
      ],
      "name": "createCampaign",
      "outputs": [],
      "stateMutability": "nonpayable",
      "type": "function"
    },
    {
      "inputs": [
        {
          "internalType": "address",
          "name": "receiver",
          "type": "address"
        },
        {
          "internalType": "uint256",
          "name": "index",
          "type": "uint256"
        }
      ],
      "name": "getReceiverCampaignByIndex",
      "outputs": [
        {
          "internalType": "address",
          "name": "",
          "type": "address"
        }
      ],
      "stateMutability": "view",
      "type": "function"
    },
    {
      "inputs": [
        {
          "internalType": "address",
          "name": "receiver",
          "type": "address"
        }
      ],
      "name": "getReceiverCampaignsSize",
      "outputs": [
        {
          "internalType": "uint256",
          "name": "",
          "type": "uint256"
        }
      ],
      "stateMutability": "view",
      "type": "function"
    },
    {
      "inputs": [
        {
          "internalType": "bytes32",
          "name": "role",
          "type": "bytes32"
        }
      ],
      "name": "getRoleAdmin",
      "outputs": [
        {
          "internalType": "bytes32",
          "name": "",
          "type": "bytes32"
        }
      ],
      "stateMutability": "view",
      "type": "function"
    },
    {
      "inputs": [
        {
          "internalType": "bytes32",
          "name": "role",
          "type": "bytes32"
        },
        {
          "internalType": "address",
          "name": "account",
          "type": "address"
        }
      ],
      "name": "grantRole",
      "outputs": [],
      "stateMutability": "nonpayable",
      "type": "function"
    },
    {
      "inputs": [
        {
          "internalType": "bytes32",
          "name": "role",
          "type": "bytes32"
        },
        {
          "internalType": "address",
          "name": "account",
          "type": "address"
        }
      ],
      "name": "hasRole",
      "outputs": [
        {
          "internalType": "bool",
          "name": "",
          "type": "bool"
        }
      ],
      "stateMutability": "view",
      "type": "function"
    },
    {
      "inputs": [
        {
          "internalType": "bytes32",
          "name": "role",
          "type": "bytes32"
        },
        {
          "internalType": "address",
          "name": "account",
          "type": "address"
        }
      ],
      "name": "renounceRole",
      "outputs": [],
      "stateMutability": "nonpayable",
      "type": "function"
    },
    {
      "inputs": [
        {
          "internalType": "bytes32",
          "name": "role",
          "type": "bytes32"
        },
        {
          "internalType": "address",
          "name": "account",
          "type": "address"
        }
      ],
      "name": "revokeRole",
      "outputs": [],
      "stateMutability": "nonpayable",
      "type": "function"
    },
    {
      "inputs": [
        {
          "internalType": "bytes4",
          "name": "interfaceId",
          "type": "bytes4"
        }
      ],
      "name": "supportsInterface",
      "outputs": [
        {
          "internalType": "bool",
          "name": "",
          "type": "bool"
        }
      ],
      "stateMutability": "view",
      "type": "function"
    }
  ],
  "bytecode": "0x60806040523480156200001157600080fd5b50620000276000801b336200005f60201b60201c565b620000597fab702d5d56cb720f4a9e68c16fba520a54ab91ef57a22d31e6281b540f07aee1336200015060201b60201c565b620001d8565b6200007182826200016660201b60201c565b6200014c57600160008084815260200190815260200160002060000160008373ffffffffffffffffffffffffffffffffffffffff1673ffffffffffffffffffffffffffffffffffffffff16815260200190815260200160002060006101000a81548160ff021916908315150217905550620000f1620001d060201b60201c565b73ffffffffffffffffffffffffffffffffffffffff168173ffffffffffffffffffffffffffffffffffffffff16837f2f8788117e7eff1d82e926ec794901d17c78024a50270940304540a733656f0d60405160405180910390a45b5050565b6200016282826200005f60201b60201c565b5050565b600080600084815260200190815260200160002060000160008373ffffffffffffffffffffffffffffffffffffffff1673ffffffffffffffffffffffffffffffffffffffff16815260200190815260200160002060009054906101000a900460ff16905092915050565b600033905090565b613c3780620001e86000396000f3fe60806040523480156200001157600080fd5b5060043610620000c45760003560e01c80638a4b5fb8116200007b5780638a4b5fb814620001e157806390f9f50c146200021757806391d148541462000237578063a217fddf146200026d578063d547741f146200028f578063dd44471814620002af57620000c4565b806301ffc9a714620000c95780631add516314620000ff578063248a9ca314620001355780632f2ff15d146200016b57806336568abe146200018b5780635ee2dc5d14620001ab575b600080fd5b620000e76004803603810190620000e1919062001032565b620002d1565b604051620000f6919062001081565b60405180910390f35b6200011d60048036038101906200011791906200113e565b6200034e565b6040516200012c919062001196565b60405180910390f35b6200015360048036038101906200014d9190620011ee565b6200039d565b60405162000162919062001231565b60405180910390f35b6200018960048036038101906200018391906200124e565b620003bc565b005b620001a96004803603810190620001a391906200124e565b620003e3565b005b620001c96004803603810190620001c3919062001295565b6200046d565b604051620001d89190620012d8565b60405180910390f35b620001ff6004803603810190620001f991906200113e565b620004b9565b6040516200020e919062001196565b60405180910390f35b6200023560048036038101906200022f919062001457565b62000559565b005b6200025560048036038101906200024f91906200124e565b62000988565b60405162000264919062001081565b60405180910390f35b62000277620009f2565b60405162000286919062001231565b60405180910390f35b620002ad6004803603810190620002a791906200124e565b620009f9565b005b620002b962000a20565b604051620002c8919062001231565b60405180910390f35b60007f7965db0b000000000000000000000000000000000000000000000000000000007bffffffffffffffffffffffffffffffffffffffffffffffffffffffff1916827bffffffffffffffffffffffffffffffffffffffffffffffffffffffff19161480620003475750620003468262000a44565b5b9050919050565b600260205281600052604060002081815481106200036b57600080fd5b906000526020600020016000915091509054906101000a900473ffffffffffffffffffffffffffffffffffffffff1681565b6000806000838152602001908152602001600020600101549050919050565b620003c7826200039d565b620003d28162000aae565b620003de838362000ac6565b505050565b620003ed62000bab565b73ffffffffffffffffffffffffffffffffffffffff168173ffffffffffffffffffffffffffffffffffffffff16146200045d576040517f08c379a000000000000000000000000000000000000000000000000000000000815260040162000454906200156f565b60405180910390fd5b62000469828262000bb3565b5050565b6000600260008373ffffffffffffffffffffffffffffffffffffffff1673ffffffffffffffffffffffffffffffffffffffff168152602001908152602001600020805490509050919050565b6000620004c6836200046d565b8210620004d257600080fd5b600260008473ffffffffffffffffffffffffffffffffffffffff1673ffffffffffffffffffffffffffffffffffffffff168152602001908152602001600020828154811062000526576200052562001591565b5b9060005260206000200160009054906101000a900473ffffffffffffffffffffffffffffffffffffffff16905092915050565b6000801b620005688162000aae565b620005947fab702d5d56cb720f4a9e68c16fba520a54ab91ef57a22d31e6281b540f07aee18662000988565b620005d6576040517f08c379a0000000000000000000000000000000000000000000000000000000008152600401620005cd9062001610565b60405180910390fd5b6000620005e3866200046d565b90506000811115620007c7576000600260008873ffffffffffffffffffffffffffffffffffffffff1673ffffffffffffffffffffffffffffffffffffffff1681526020019081526020016000206001836200063f919062001661565b8154811062000653576200065262001591565b5b9060005260206000200160009054906101000a900473ffffffffffffffffffffffffffffffffffffffff16905060018173ffffffffffffffffffffffffffffffffffffffff166312498a706040518163ffffffff1660e01b8152600401602060405180830381865afa158015620006ce573d6000803e3d6000fd5b505050506040513d601f19601f82011682018060405250810190620006f49190620016b3565b620007009190620016e5565b421180156200077e57508073ffffffffffffffffffffffffffffffffffffffff166360f5ac866040518163ffffffff1660e01b8152600401602060405180830381865afa15801562000756573d6000803e3d6000fd5b505050506040513d601f19601f820116820180604052508101906200077c919062001751565b155b620007c0576040517f08c379a0000000000000000000000000000000000000000000000000000000008152600401620007b790620017d3565b60405180910390fd5b506200082b565b6001869080600181540180825580915050600190039060005260206000200160009091909190916101000a81548173ffffffffffffffffffffffffffffffffffffffff021916908373ffffffffffffffffffffffffffffffffffffffff1602179055505b6000868686866040516200083f9062000fb3565b6200084e94939291906200186d565b604051809103906000f0801580156200086b573d6000803e3d6000fd5b509050600260008873ffffffffffffffffffffffffffffffffffffffff1673ffffffffffffffffffffffffffffffffffffffff168152602001908152602001600020819080600181540180825580915050600190039060005260206000200160009091909190916101000a81548173ffffffffffffffffffffffffffffffffffffffff021916908373ffffffffffffffffffffffffffffffffffffffff1602179055508073ffffffffffffffffffffffffffffffffffffffff168773ffffffffffffffffffffffffffffffffffffffff163373ffffffffffffffffffffffffffffffffffffffff167f1260f646519b6441128edda4528afcfbcf3e46959be8f7c3d85d50f62eda7c6860405160405180910390a450505050505050565b600080600084815260200190815260200160002060000160008373ffffffffffffffffffffffffffffffffffffffff1673ffffffffffffffffffffffffffffffffffffffff16815260200190815260200160002060009054906101000a900460ff16905092915050565b6000801b81565b62000a04826200039d565b62000a0f8162000aae565b62000a1b838362000bb3565b505050565b7fab702d5d56cb720f4a9e68c16fba520a54ab91ef57a22d31e6281b540f07aee181565b60007f01ffc9a7000000000000000000000000000000000000000000000000000000007bffffffffffffffffffffffffffffffffffffffffffffffffffffffff1916827bffffffffffffffffffffffffffffffffffffffffffffffffffffffff1916149050919050565b62000ac38162000abd62000bab565b62000c99565b50565b62000ad2828262000988565b62000ba757600160008084815260200190815260200160002060000160008373ffffffffffffffffffffffffffffffffffffffff1673ffffffffffffffffffffffffffffffffffffffff16815260200190815260200160002060006101000a81548160ff02191690831515021790555062000b4c62000bab565b73ffffffffffffffffffffffffffffffffffffffff168173ffffffffffffffffffffffffffffffffffffffff16837f2f8788117e7eff1d82e926ec794901d17c78024a50270940304540a733656f0d60405160405180910390a45b5050565b600033905090565b62000bbf828262000988565b1562000c9557600080600084815260200190815260200160002060000160008373ffffffffffffffffffffffffffffffffffffffff1673ffffffffffffffffffffffffffffffffffffffff16815260200190815260200160002060006101000a81548160ff02191690831515021790555062000c3a62000bab565b73ffffffffffffffffffffffffffffffffffffffff168173ffffffffffffffffffffffffffffffffffffffff16837ff6391f5c32d9c69d2a47ea670b442974b53935d1edc7fd64eb21e047a839171b60405160405180910390a45b5050565b62000ca5828262000988565b62000d255762000cb58162000d29565b62000cc58360001c602062000d58565b60405160200162000cd8929190620019a3565b6040516020818303038152906040526040517f08c379a000000000000000000000000000000000000000000000000000000000815260040162000d1c9190620019e5565b60405180910390fd5b5050565b606062000d518273ffffffffffffffffffffffffffffffffffffffff16601460ff1662000d58565b9050919050565b60606000600283600262000d6d919062001a09565b62000d799190620016e5565b67ffffffffffffffff81111562000d955762000d9462001310565b5b6040519080825280601f01601f19166020018201604052801562000dc85781602001600182028036833780820191505090505b5090507f30000000000000000000000000000000000000000000000000000000000000008160008151811062000e035762000e0262001591565b5b60200101907effffffffffffffffffffffffffffffffffffffffffffffffffffffffffffff1916908160001a9053507f78000000000000000000000000000000000000000000000000000000000000008160018151811062000e6a5762000e6962001591565b5b60200101907effffffffffffffffffffffffffffffffffffffffffffffffffffffffffffff1916908160001a9053506000600184600262000eac919062001a09565b62000eb89190620016e5565b90505b600181111562000f62577f3031323334353637383961626364656600000000000000000000000000000000600f86166010811062000efe5762000efd62001591565b5b1a60f81b82828151811062000f185762000f1762001591565b5b60200101907effffffffffffffffffffffffffffffffffffffffffffffffffffffffffffff1916908160001a905350600485901c94508062000f5a9062001a54565b905062000ebb565b506000841462000fa9576040517f08c379a000000000000000000000000000000000000000000000000000000000815260040162000fa09062001ad2565b60405180910390fd5b8091505092915050565b61210d8062001af583390190565b6000604051905090565b600080fd5b600080fd5b60007fffffffff0000000000000000000000000000000000000000000000000000000082169050919050565b6200100c8162000fd5565b81146200101857600080fd5b50565b6000813590506200102c8162001001565b92915050565b6000602082840312156200104b576200104a62000fcb565b5b60006200105b848285016200101b565b91505092915050565b60008115159050919050565b6200107b8162001064565b82525050565b600060208201905062001098600083018462001070565b92915050565b600073ffffffffffffffffffffffffffffffffffffffff82169050919050565b6000620010cb826200109e565b9050919050565b620010dd81620010be565b8114620010e957600080fd5b50565b600081359050620010fd81620010d2565b92915050565b6000819050919050565b620011188162001103565b81146200112457600080fd5b50565b60008135905062001138816200110d565b92915050565b6000806040838503121562001158576200115762000fcb565b5b60006200116885828601620010ec565b92505060206200117b8582860162001127565b9150509250929050565b6200119081620010be565b82525050565b6000602082019050620011ad600083018462001185565b92915050565b6000819050919050565b620011c881620011b3565b8114620011d457600080fd5b50565b600081359050620011e881620011bd565b92915050565b60006020828403121562001207576200120662000fcb565b5b60006200121784828501620011d7565b91505092915050565b6200122b81620011b3565b82525050565b600060208201905062001248600083018462001220565b92915050565b6000806040838503121562001268576200126762000fcb565b5b60006200127885828601620011d7565b92505060206200128b85828601620010ec565b9150509250929050565b600060208284031215620012ae57620012ad62000fcb565b5b6000620012be84828501620010ec565b91505092915050565b620012d28162001103565b82525050565b6000602082019050620012ef6000830184620012c7565b92915050565b600080fd5b600080fd5b6000601f19601f8301169050919050565b7f4e487b7100000000000000000000000000000000000000000000000000000000600052604160045260246000fd5b6200134a82620012ff565b810181811067ffffffffffffffff821117156200136c576200136b62001310565b5b80604052505050565b60006200138162000fc1565b90506200138f82826200133f565b919050565b600067ffffffffffffffff821115620013b257620013b162001310565b5b620013bd82620012ff565b9050602081019050919050565b82818337600083830152505050565b6000620013f0620013ea8462001394565b62001375565b9050828152602081018484840111156200140f576200140e620012fa565b5b6200141c848285620013ca565b509392505050565b600082601f8301126200143c576200143b620012f5565b5b81356200144e848260208601620013d9565b91505092915050565b6000806000806080858703121562001474576200147362000fcb565b5b60006200148487828801620010ec565b945050602085013567ffffffffffffffff811115620014a857620014a762000fd0565b5b620014b68782880162001424565b9350506040620014c98782880162001127565b9250506060620014dc8782880162001127565b91505092959194509250565b600082825260208201905092915050565b7f416363657373436f6e74726f6c3a2063616e206f6e6c792072656e6f756e636560008201527f20726f6c657320666f722073656c660000000000000000000000000000000000602082015250565b600062001557602f83620014e8565b91506200156482620014f9565b604082019050919050565b600060208201905081810360008301526200158a8162001548565b9050919050565b7f4e487b7100000000000000000000000000000000000000000000000000000000600052603260045260246000fd5b7f5265636569766572206e6f7420636f6e6669726d656400000000000000000000600082015250565b6000620015f8601683620014e8565b91506200160582620015c0565b602082019050919050565b600060208201905081810360008301526200162b81620015e9565b9050919050565b7f4e487b7100000000000000000000000000000000000000000000000000000000600052601160045260246000fd5b60006200166e8262001103565b91506200167b8362001103565b925082820390508181111562001696576200169562001632565b5b92915050565b600081519050620016ad816200110d565b92915050565b600060208284031215620016cc57620016cb62000fcb565b5b6000620016dc848285016200169c565b91505092915050565b6000620016f28262001103565b9150620016ff8362001103565b92508282019050808211156200171a576200171962001632565b5b92915050565b6200172b8162001064565b81146200173757600080fd5b50565b6000815190506200174b8162001720565b92915050565b6000602082840312156200176a576200176962000fcb565b5b60006200177a848285016200173a565b91505092915050565b7f43616e74206372656174652061206e65772063616d706169676e207965740000600082015250565b6000620017bb601e83620014e8565b9150620017c88262001783565b602082019050919050565b60006020820190508181036000830152620017ee81620017ac565b9050919050565b600081519050919050565b60005b838110156200182057808201518184015260208101905062001803565b60008484015250505050565b60006200183982620017f5565b620018458185620014e8565b93506200185781856020860162001800565b6200186281620012ff565b840191505092915050565b600060808201905062001884600083018762001185565b81810360208301526200189881866200182c565b9050620018a96040830185620012c7565b620018b86060830184620012c7565b95945050505050565b600081905092915050565b7f416363657373436f6e74726f6c3a206163636f756e7420000000000000000000600082015250565b600062001904601783620018c1565b91506200191182620018cc565b601782019050919050565b60006200192982620017f5565b620019358185620018c1565b93506200194781856020860162001800565b80840191505092915050565b7f206973206d697373696e6720726f6c6520000000000000000000000000000000600082015250565b60006200198b601183620018c1565b9150620019988262001953565b601182019050919050565b6000620019b082620018f5565b9150620019be82856200191c565b9150620019cb826200197c565b9150620019d982846200191c565b91508190509392505050565b6000602082019050818103600083015262001a0181846200182c565b905092915050565b600062001a168262001103565b915062001a238362001103565b925082820262001a338162001103565b9150828204841483151762001a4d5762001a4c62001632565b5b5092915050565b600062001a618262001103565b91506000820362001a775762001a7662001632565b5b600182039050919050565b7f537472696e67733a20686578206c656e67746820696e73756666696369656e74600082015250565b600062001aba602083620014e8565b915062001ac78262001a82565b602082019050919050565b6000602082019050818103600083015262001aed8162001aab565b905091905056fe61010060405260018060006101000a81548160ff02191690831515021790555060006001806101000a81548160ff0219169083151502179055503480156200004657600080fd5b506040516200210d3803806200210d83398181016040528101906200006c919062000407565b80603c426200007c9190620004c7565b8111620000c0576040517f08c379a0000000000000000000000000000000000000000000000000000000008152600401620000b79062000589565b60405180910390fd5b6000831162000106576040517f08c379a0000000000000000000000000000000000000000000000000000000008152600401620000fd9062000621565b60405180910390fd5b8473ffffffffffffffffffffffffffffffffffffffff163373ffffffffffffffffffffffffffffffffffffffff16036200013f57600080fd5b3373ffffffffffffffffffffffffffffffffffffffff1660808173ffffffffffffffffffffffffffffffffffffffff16815250508473ffffffffffffffffffffffffffffffffffffffff1660a08173ffffffffffffffffffffffffffffffffffffffff16815250508360009081620001b8919062000884565b508260c081815250508160e0818152505050505050506200096b565b6000604051905090565b600080fd5b600080fd5b600073ffffffffffffffffffffffffffffffffffffffff82169050919050565b60006200021582620001e8565b9050919050565b620002278162000208565b81146200023357600080fd5b50565b60008151905062000247816200021c565b92915050565b600080fd5b600080fd5b6000601f19601f8301169050919050565b7f4e487b7100000000000000000000000000000000000000000000000000000000600052604160045260246000fd5b620002a28262000257565b810181811067ffffffffffffffff82111715620002c457620002c362000268565b5b80604052505050565b6000620002d9620001d4565b9050620002e7828262000297565b919050565b600067ffffffffffffffff8211156200030a576200030962000268565b5b620003158262000257565b9050602081019050919050565b60005b838110156200034257808201518184015260208101905062000325565b60008484015250505050565b6000620003656200035f84620002ec565b620002cd565b90508281526020810184848401111562000384576200038362000252565b5b6200039184828562000322565b509392505050565b600082601f830112620003b157620003b06200024d565b5b8151620003c38482602086016200034e565b91505092915050565b6000819050919050565b620003e181620003cc565b8114620003ed57600080fd5b50565b6000815190506200040181620003d6565b92915050565b60008060008060808587031215620004245762000423620001de565b5b6000620004348782880162000236565b945050602085015167ffffffffffffffff811115620004585762000457620001e3565b5b620004668782880162000399565b93505060406200047987828801620003f0565b92505060606200048c87828801620003f0565b91505092959194509250565b7f4e487b7100000000000000000000000000000000000000000000000000000000600052601160045260246000fd5b6000620004d482620003cc565b9150620004e183620003cc565b9250828201905080821115620004fc57620004fb62000498565b5b92915050565b600082825260208201905092915050565b7f43616d706169676e206d757374206265206c69766520666f72206174206c656160008201527f737420323420686f757273000000000000000000000000000000000000000000602082015250565b600062000571602b8362000502565b91506200057e8262000513565b604082019050919050565b60006020820190508181036000830152620005a48162000562565b9050919050565b7f54686520616d6f756e7420726571756573746564206d7573742062652067726560008201527f61746572207468616e207a65726f000000000000000000000000000000000000602082015250565b600062000609602e8362000502565b91506200061682620005ab565b604082019050919050565b600060208201905081810360008301526200063c81620005fa565b9050919050565b600081519050919050565b7f4e487b7100000000000000000000000000000000000000000000000000000000600052602260045260246000fd5b600060028204905060018216806200069657607f821691505b602082108103620006ac57620006ab6200064e565b5b50919050565b60008190508160005260206000209050919050565b60006020601f8301049050919050565b600082821b905092915050565b600060088302620007167fffffffffffffffffffffffffffffffffffffffffffffffffffffffffffffffff82620006d7565b620007228683620006d7565b95508019841693508086168417925050509392505050565b6000819050919050565b6000620007656200075f6200075984620003cc565b6200073a565b620003cc565b9050919050565b6000819050919050565b620007818362000744565b6200079962000790826200076c565b848454620006e4565b825550505050565b600090565b620007b0620007a1565b620007bd81848462000776565b505050565b5b81811015620007e557620007d9600082620007a6565b600181019050620007c3565b5050565b601f8211156200083457620007fe81620006b2565b6200080984620006c7565b8101602085101562000819578190505b620008316200082885620006c7565b830182620007c2565b50505b505050565b600082821c905092915050565b6000620008596000198460080262000839565b1980831691505092915050565b600062000874838362000846565b9150826002028217905092915050565b6200088f8262000643565b67ffffffffffffffff811115620008ab57620008aa62000268565b5b620008b782546200067d565b620008c4828285620007e9565b600060209050601f831160018114620008fc5760008415620008e7578287015190505b620008f3858262000866565b86555062000963565b601f1984166200090c86620006b2565b60005b8281101562000936578489015182556001820191506020850194506020810190506200090f565b8683101562000956578489015162000952601f89168262000846565b8355505b6001600288020188555050505b505050505050565b60805160a05160c05160e051611722620009eb6000396000818161010a0152818161051001528181610a6c0152610b380152600081816101b0015281816104ec01528181610a1c01528181610bde01528181610d940152610dc50152600081816107ec0152818161083901526109640152600061078901526117226000f3fe6080604052600436106100ec5760003560e01c8063accc58001161008a578063d7557f1811610059578063d7557f1814610460578063d989a6ce14610477578063ed88c68e146104b5578063f05cb12e146104bf576102a0565b8063accc5800146103c3578063cc2c193a146103ee578063cc6cb19a14610419578063ce1b088a14610456576102a0565b806360f5ac86116100c657806360f5ac861461030557806362d6fe0014610330578063aab9caa41461035b578063ac62f56614610386576102a0565b80631182b179146102a557806312498a70146102d0578063590e1ae3146102fb576102a0565b366102a057600160009054906101000a900460ff16801561012c57507f000000000000000000000000000000000000000000000000000000000000000042105b61016b576040517f08c379a000000000000000000000000000000000000000000000000000000000815260040161016290610e51565b60405180910390fd5b600034116101ae576040517f08c379a00000000000000000000000000000000000000000000000000000000081526004016101a590610ee3565b60405180910390fd5b7f0000000000000000000000000000000000000000000000000000000000000000471115610211576040517f08c379a000000000000000000000000000000000000000000000000000000000815260040161020890610f75565b60405180910390fd5b34600360003373ffffffffffffffffffffffffffffffffffffffff1673ffffffffffffffffffffffffffffffffffffffff16815260200190815260200160002060008282546102609190610fce565b925050819055507f8e7cfdefcf8c12f8dccd26c94f385f22d656f8eafef6e8703d3b50a19dddf89d346040516102969190611011565b60405180910390a1005b600080fd5b3480156102b157600080fd5b506102ba6104ea565b6040516102c79190611011565b60405180910390f35b3480156102dc57600080fd5b506102e561050e565b6040516102f29190611011565b60405180910390f35b610303610532565b005b34801561031157600080fd5b5061031a6106e6565b6040516103279190611047565b60405180910390f35b34801561033c57600080fd5b506103456106f9565b60405161035291906110e1565b60405180910390f35b34801561036757600080fd5b50610370610787565b60405161037d9190611144565b60405180910390f35b34801561039257600080fd5b506103ad60048036038101906103a89190611190565b6107ab565b6040516103ba9190611144565b60405180910390f35b3480156103cf57600080fd5b506103d86107ea565b6040516103e59190611144565b60405180910390f35b3480156103fa57600080fd5b5061040361080e565b6040516104109190611047565b60405180910390f35b34801561042557600080fd5b50610440600480360381019061043b91906111e9565b61081f565b60405161044d9190611011565b60405180910390f35b61045e610837565b005b34801561046c57600080fd5b506104756109cb565b005b34801561048357600080fd5b5061049e6004803603810190610499919061124f565b610aea565b6040516104ac92919061128f565b60405180910390f35b6104bd610b1f565b005b3480156104cb57600080fd5b506104d4610d90565b6040516104e19190611011565b60405180910390f35b7f000000000000000000000000000000000000000000000000000000000000000081565b7f000000000000000000000000000000000000000000000000000000000000000081565b600160009054906101000a900460ff1615610582576040517f08c379a000000000000000000000000000000000000000000000000000000000815260040161057990611304565b60405180910390fd5b60018054906101000a900460ff16156105d0576040517f08c379a00000000000000000000000000000000000000000000000000000000081526004016105c790611396565b60405180910390fd5b6000600360003373ffffffffffffffffffffffffffffffffffffffff1673ffffffffffffffffffffffffffffffffffffffff16815260200190815260200160002054905060008111610657576040517f08c379a000000000000000000000000000000000000000000000000000000000815260040161064e90611402565b60405180910390fd5b6000600360003373ffffffffffffffffffffffffffffffffffffffff1673ffffffffffffffffffffffffffffffffffffffff168152602001908152602001600020819055503373ffffffffffffffffffffffffffffffffffffffff166108fc829081150290604051600060405180830381858888f193505050501580156106e2573d6000803e3d6000fd5b5050565b600160009054906101000a900460ff1681565b6000805461070690611451565b80601f016020809104026020016040519081016040528092919081815260200182805461073290611451565b801561077f5780601f106107545761010080835404028352916020019161077f565b820191906000526020600020905b81548152906001019060200180831161076257829003601f168201915b505050505081565b7f000000000000000000000000000000000000000000000000000000000000000081565b600281815481106107bb57600080fd5b906000526020600020016000915054906101000a900473ffffffffffffffffffffffffffffffffffffffff1681565b7f000000000000000000000000000000000000000000000000000000000000000081565b60018054906101000a900460ff1681565b60036020528060005260406000206000915090505481565b7f000000000000000000000000000000000000000000000000000000000000000073ffffffffffffffffffffffffffffffffffffffff163373ffffffffffffffffffffffffffffffffffffffff16146108c5576040517f08c379a00000000000000000000000000000000000000000000000000000000081526004016108bc906114ce565b60405180910390fd5b600160009054906101000a900460ff1615610915576040517f08c379a000000000000000000000000000000000000000000000000000000000815260040161090c90611304565b60405180910390fd5b60018054906101000a900460ff16610962576040517f08c379a000000000000000000000000000000000000000000000000000000000815260040161095990611560565b60405180910390fd5b7f000000000000000000000000000000000000000000000000000000000000000073ffffffffffffffffffffffffffffffffffffffff166108fc479081150290604051600060405180830381858888f193505050501580156109c8573d6000803e3d6000fd5b50565b600160009054906101000a900460ff16610a1a576040517f08c379a0000000000000000000000000000000000000000000000000000000008152600401610a11906115cc565b60405180910390fd5b7f00000000000000000000000000000000000000000000000000000000000000004710156001806101000a81548160ff02191690831515021790555060018054906101000a900460ff1680610a8e57507f000000000000000000000000000000000000000000000000000000000000000042115b610acd576040517f08c379a0000000000000000000000000000000000000000000000000000000008152600401610ac490611638565b60405180910390fd5b6000600160006101000a81548160ff021916908315150217905550565b60008060008360ff1685610afe9190611687565b905060008186610b0e91906116b8565b905080829350935050509250929050565b600160009054906101000a900460ff168015610b5a57507f000000000000000000000000000000000000000000000000000000000000000042105b610b99576040517f08c379a0000000000000000000000000000000000000000000000000000000008152600401610b9090610e51565b60405180910390fd5b60003411610bdc576040517f08c379a0000000000000000000000000000000000000000000000000000000008152600401610bd390610ee3565b60405180910390fd5b7f0000000000000000000000000000000000000000000000000000000000000000471115610c3f576040517f08c379a0000000000000000000000000000000000000000000000000000000008152600401610c3690610f75565b60405180910390fd5b6000600360003373ffffffffffffffffffffffffffffffffffffffff1673ffffffffffffffffffffffffffffffffffffffff1681526020019081526020016000205403610cea576002339080600181540180825580915050600190039060005260206000200160009091909190916101000a81548173ffffffffffffffffffffffffffffffffffffffff021916908373ffffffffffffffffffffffffffffffffffffffff1602179055505b34600360003373ffffffffffffffffffffffffffffffffffffffff1673ffffffffffffffffffffffffffffffffffffffff1681526020019081526020016000206000828254610d399190610fce565b925050819055503373ffffffffffffffffffffffffffffffffffffffff167f5d8bc849764969eb1bcc6d0a2f55999d0167c1ccec240a4f39cf664ca9c4148e34604051610d869190611011565b60405180910390a2565b60007f00000000000000000000000000000000000000000000000000000000000000004710610dc25760009050610df1565b477f0000000000000000000000000000000000000000000000000000000000000000610dee91906116b8565b90505b90565b600082825260208201905092915050565b7f43616d706169676e20656e646564000000000000000000000000000000000000600082015250565b6000610e3b600e83610df4565b9150610e4682610e05565b602082019050919050565b60006020820190508181036000830152610e6a81610e2e565b9050919050565b7f54686520646f6e6174696f6e2076616c7565206d75737420626520677265617460008201527f6572207468616e207a65726f0000000000000000000000000000000000000000602082015250565b6000610ecd602c83610df4565b9150610ed882610e71565b604082019050919050565b60006020820190508181036000830152610efc81610ec0565b9050919050565b7f446f6e6174696f6e20657863656564732074686520616d6f756e74207265717560008201527f6573746564000000000000000000000000000000000000000000000000000000602082015250565b6000610f5f602583610df4565b9150610f6a82610f03565b604082019050919050565b60006020820190508181036000830152610f8e81610f52565b9050919050565b6000819050919050565b7f4e487b7100000000000000000000000000000000000000000000000000000000600052601160045260246000fd5b6000610fd982610f95565b9150610fe483610f95565b9250828201905080821115610ffc57610ffb610f9f565b5b92915050565b61100b81610f95565b82525050565b60006020820190506110266000830184611002565b92915050565b60008115159050919050565b6110418161102c565b82525050565b600060208201905061105c6000830184611038565b92915050565b600081519050919050565b60005b8381101561108b578082015181840152602081019050611070565b60008484015250505050565b6000601f19601f8301169050919050565b60006110b382611062565b6110bd8185610df4565b93506110cd81856020860161106d565b6110d681611097565b840191505092915050565b600060208201905081810360008301526110fb81846110a8565b905092915050565b600073ffffffffffffffffffffffffffffffffffffffff82169050919050565b600061112e82611103565b9050919050565b61113e81611123565b82525050565b60006020820190506111596000830184611135565b92915050565b600080fd5b61116d81610f95565b811461117857600080fd5b50565b60008135905061118a81611164565b92915050565b6000602082840312156111a6576111a561115f565b5b60006111b48482850161117b565b91505092915050565b6111c681611123565b81146111d157600080fd5b50565b6000813590506111e3816111bd565b92915050565b6000602082840312156111ff576111fe61115f565b5b600061120d848285016111d4565b91505092915050565b600060ff82169050919050565b61122c81611216565b811461123757600080fd5b50565b60008135905061124981611223565b92915050565b600080604083850312156112665761126561115f565b5b60006112748582860161117b565b92505060206112858582860161123a565b9150509250929050565b60006040820190506112a46000830185611002565b6112b16020830184611002565b9392505050565b7f5468652063616d706169676e206973207374696c6c206f70656e000000000000600082015250565b60006112ee601a83610df4565b91506112f9826112b8565b602082019050919050565b6000602082019050818103600083015261131d816112e1565b9050919050565b7f5468652063616d706169676e207265616368656420746865207265717569726560008201527f6420616d6f756e74000000000000000000000000000000000000000000000000602082015250565b6000611380602883610df4565b915061138b82611324565b604082019050919050565b600060208201905081810360008301526113af81611373565b9050919050565b7f4e6f20646f6e6174696f6e7320746f2077697468647261770000000000000000600082015250565b60006113ec601883610df4565b91506113f7826113b6565b602082019050919050565b6000602082019050818103600083015261141b816113df565b9050919050565b7f4e487b7100000000000000000000000000000000000000000000000000000000600052602260045260246000fd5b6000600282049050600182168061146957607f821691505b60208210810361147c5761147b611422565b5b50919050565b7f596f7520617265206e6f74207468652072656365697665720000000000000000600082015250565b60006114b8601883610df4565b91506114c382611482565b602082019050919050565b600060208201905081810360008301526114e7816114ab565b9050919050565b7f5468652063616d706169676e20646964206e6f7420726561636820746865207260008201527f6571756972656420616d6f756e74000000000000000000000000000000000000602082015250565b600061154a602e83610df4565b9150611555826114ee565b604082019050919050565b600060208201905081810360008301526115798161153d565b9050919050565b7f43616d706169676e20697320616c726561647920636c6f736564207965740000600082015250565b60006115b6601e83610df4565b91506115c182611580565b602082019050919050565b600060208201905081810360008301526115e5816115a9565b9050919050565b7f5468652063616d706169676e2063616e206e6f7420626520636c6f7365640000600082015250565b6000611622601e83610df4565b915061162d826115ec565b602082019050919050565b6000602082019050818103600083015261165181611615565b9050919050565b7f4e487b7100000000000000000000000000000000000000000000000000000000600052601260045260246000fd5b600061169282610f95565b915061169d83610f95565b9250826116ad576116ac611658565b5b828204905092915050565b60006116c382610f95565b91506116ce83610f95565b92508282039050818111156116e6576116e5610f9f565b5b9291505056fea2646970667358221220dc56971ec935c3d887a02d1894efabacdd04904f417bd7dcb1252305b240b11164736f6c63430008130033a2646970667358221220f8292c1e4002c03b694896a16ae686742246909b4d8f2c91f2f3184f1ae34d8464736f6c63430008130033",
  "linkReferences": {},
  "deployedLinkReferences": {}
}