{
  "contractName": "DonationContract",
  "abi": [
    {
      "inputs": [
        {
          "internalType": "address",
          "name": "_campaignReceiver",
          "type": "address"
        },
        {
          "internalType": "string",
          "name": "_campaignIpfs",
          "type": "string"
        },
        {
          "internalType": "uint256",
          "name": "_amountRequesting",
          "type": "uint256"
        },
        {
          "internalType": "uint256",
          "name": "_campaignEndTime",
          "type": "uint256"
        }
      ],
      "stateMutability": "nonpayable",
      "type": "constructor"
    },
    {
      "anonymous": false,
      "inputs": [
        {
          "indexed": true,
          "internalType": "address",
          "name": "campaignAddress",
          "type": "address"
        }
      ],
      "name": "CampaignEnded",
      "type": "event"
    },
    {
      "anonymous": false,
      "inputs": [
        {
          "indexed": true,
          "internalType": "address",
          "name": "sender",
          "type": "address"
        },
        {
          "indexed": false,
          "internalType": "uint256",
          "name": "amount",
          "type": "uint256"
        }
      ],
      "name": "Donation",
      "type": "event"
    },
    {
      "anonymous": false,
      "inputs": [
        {
          "indexed": false,
          "internalType": "uint256",
          "name": "amountToWithdraw",
          "type": "uint256"
        }
      ],
      "name": "UnknownDonation",
      "type": "event"
    },
    {
      "inputs": [],
      "name": "admistrator",
      "outputs": [
        {
          "internalType": "address",
          "name": "",
          "type": "address"
        }
      ],
      "stateMutability": "view",
      "type": "function"
    },
    {
      "inputs": [],
      "name": "amountRequesting",
      "outputs": [
        {
          "internalType": "uint256",
          "name": "",
          "type": "uint256"
        }
      ],
      "stateMutability": "view",
      "type": "function"
    },
    {
      "inputs": [],
      "name": "campaignEndTime",
      "outputs": [
        {
          "internalType": "uint256",
          "name": "",
          "type": "uint256"
        }
      ],
      "stateMutability": "view",
      "type": "function"
    },
    {
      "inputs": [],
      "name": "campaignIpfs",
      "outputs": [
        {
          "internalType": "string",
          "name": "",
          "type": "string"
        }
      ],
      "stateMutability": "view",
      "type": "function"
    },
    {
      "inputs": [],
      "name": "campaignOpen",
      "outputs": [
        {
          "internalType": "bool",
          "name": "",
          "type": "bool"
        }
      ],
      "stateMutability": "view",
      "type": "function"
    },
    {
      "inputs": [],
      "name": "campaignReceiver",
      "outputs": [
        {
          "internalType": "address",
          "name": "",
          "type": "address"
        }
      ],
      "stateMutability": "view",
      "type": "function"
    },
    {
      "inputs": [],
      "name": "campaignSuccess",
      "outputs": [
        {
          "internalType": "bool",
          "name": "",
          "type": "bool"
        }
      ],
      "stateMutability": "view",
      "type": "function"
    },
    {
      "inputs": [
        {
          "internalType": "address",
          "name": "",
          "type": "address"
        }
      ],
      "name": "donations",
      "outputs": [
        {
          "internalType": "uint256",
          "name": "",
          "type": "uint256"
        }
      ],
      "stateMutability": "view",
      "type": "function"
    },
    {
      "inputs": [
        {
          "internalType": "uint256",
          "name": "",
          "type": "uint256"
        }
      ],
      "name": "donators",
      "outputs": [
        {
          "internalType": "address",
          "name": "",
          "type": "address"
        }
      ],
      "stateMutability": "view",
      "type": "function"
    },
    {
      "stateMutability": "payable",
      "type": "receive"
    },
    {
      "inputs": [],
      "name": "donate",
      "outputs": [],
      "stateMutability": "payable",
      "type": "function"
    },
    {
      "inputs": [],
      "name": "closeCampaign",
      "outputs": [],
      "stateMutability": "nonpayable",
      "type": "function"
    },
    {
      "inputs": [],
      "name": "withdrawDonations",
      "outputs": [],
      "stateMutability": "payable",
      "type": "function"
    },
    {
      "inputs": [],
      "name": "refund",
      "outputs": [],
      "stateMutability": "payable",
      "type": "function"
    },
    {
      "inputs": [
        {
          "internalType": "uint256",
          "name": "amount",
          "type": "uint256"
        },
        {
          "internalType": "uint8",
          "name": "fee",
          "type": "uint8"
        }
      ],
      "name": "afterFee",
      "outputs": [
        {
          "internalType": "uint256",
          "name": "",
          "type": "uint256"
        },
        {
          "internalType": "uint256",
          "name": "",
          "type": "uint256"
        }
      ],
      "stateMutability": "pure",
      "type": "function"
    },
    {
      "inputs": [],
      "name": "missingBalanceToTarget",
      "outputs": [
        {
          "internalType": "uint256",
          "name": "",
          "type": "uint256"
        }
      ],
      "stateMutability": "view",
      "type": "function"
    }
  ],
  "bytecode": "0x6101006040526001805461ffff1916811790553480156200001f57600080fd5b50604051620010ec380380620010ec83398101604081905262000042916200022e565b806200005042603c6200033c565b8111620000b85760405162461bcd60e51b815260206004820152602b60248201527f43616d706169676e206d757374206265206c69766520666f72206174206c656160448201526a737420323420686f75727360a81b60648201526084015b60405180910390fd5b60008311620001215760405162461bcd60e51b815260206004820152602e60248201527f54686520616d6f756e7420726571756573746564206d7573742062652067726560448201526d61746572207468616e207a65726f60901b6064820152608401620000af565b336001600160a01b03861614156200013857600080fd5b336080526001600160a01b03851660a05283516200015e90600090602087019062000172565b505060c09190915260e05250620003a09050565b828054620001809062000363565b90600052602060002090601f016020900481019282620001a45760008555620001ef565b82601f10620001bf57805160ff1916838001178555620001ef565b82800160010185558215620001ef579182015b82811115620001ef578251825591602001919060010190620001d2565b50620001fd92915062000201565b5090565b5b80821115620001fd576000815560010162000202565b634e487b7160e01b600052604160045260246000fd5b600080600080608085870312156200024557600080fd5b84516001600160a01b03811681146200025d57600080fd5b602086810151919550906001600160401b03808211156200027d57600080fd5b818801915088601f8301126200029257600080fd5b815181811115620002a757620002a762000218565b604051601f8201601f19908116603f01168101908382118183101715620002d257620002d262000218565b816040528281528b86848701011115620002eb57600080fd5b600093505b828410156200030f5784840186015181850187015292850192620002f0565b82841115620003215760008684830101525b60408b01516060909b0151999c909b50975050505050505050565b600082198211156200035e57634e487b7160e01b600052601160045260246000fd5b500190565b600181811c908216806200037857607f821691505b602082108114156200039a57634e487b7160e01b600052602260045260246000fd5b50919050565b60805160a05160c05160e051610ccd6200041f6000396000818160d00152818161022e015281816107d20152610886015260008181610139015281816101e701528181610795015281816108e6015281816109da0152610a0b015260008181610324015281816105e701526106ed015260006102b80152610ccd6000f3fe6080604052600436106100bc5760003560e01c80631182b179146101d557806312498a701461021c578063590e1ae31461025057806360f5ac861461025a57806362d6fe0014610284578063aab9caa4146102a6578063ac62f566146102f2578063accc580014610312578063cc2c193a14610346578063cc6cb19a14610365578063ce1b088a14610392578063d7557f181461039a578063d989a6ce146103af578063ed88c68e146103e4578063f05cb12e146103ec57600080fd5b366101d05760015460ff1680156100f257507f000000000000000000000000000000000000000000000000000000000000000042105b6101175760405162461bcd60e51b815260040161010e90610a34565b60405180910390fd5b600034116101375760405162461bcd60e51b815260040161010e90610a5c565b7f00000000000000000000000000000000000000000000000000000000000000004711156101775760405162461bcd60e51b815260040161010e90610aa8565b3360009081526003602052604081208054349290610196908490610b03565b90915550506040513481527f8e7cfdefcf8c12f8dccd26c94f385f22d656f8eafef6e8703d3b50a19dddf89d9060200160405180910390a1005b600080fd5b3480156101e157600080fd5b506102097f000000000000000000000000000000000000000000000000000000000000000081565b6040519081526020015b60405180910390f35b34801561022857600080fd5b506102097f000000000000000000000000000000000000000000000000000000000000000081565b610258610401565b005b34801561026657600080fd5b506001546102749060ff1681565b6040519015158152602001610213565b34801561029057600080fd5b50610299610524565b6040516102139190610b1b565b3480156102b257600080fd5b506102da7f000000000000000000000000000000000000000000000000000000000000000081565b6040516001600160a01b039091168152602001610213565b3480156102fe57600080fd5b506102da61030d366004610b70565b6105b2565b34801561031e57600080fd5b506102da7f000000000000000000000000000000000000000000000000000000000000000081565b34801561035257600080fd5b5060015461027490610100900460ff1681565b34801561037157600080fd5b50610209610380366004610b89565b60036020526000908152604090205481565b6102586105dc565b3480156103a657600080fd5b50610258610738565b3480156103bb57600080fd5b506103cf6103ca366004610bb9565b61084c565b60408051928352602083019190915201610213565b610258610877565b3480156103f857600080fd5b506102096109d6565b60015460ff16156104245760405162461bcd60e51b815260040161010e90610bef565b600154610100900460ff161561048d5760405162461bcd60e51b815260206004820152602860248201527f5468652063616d706169676e20726561636865642074686520726571756972656044820152671908185b5bdd5b9d60c21b606482015260840161010e565b33600090815260036020526040902054806104e55760405162461bcd60e51b81526020600482015260186024820152774e6f20646f6e6174696f6e7320746f20776974686472617760401b604482015260640161010e565b336000818152600360205260408082208290555183156108fc0291849190818181858888f19350505050158015610520573d6000803e3d6000fd5b5050565b6000805461053190610c23565b80601f016020809104026020016040519081016040528092919081815260200182805461055d90610c23565b80156105aa5780601f1061057f576101008083540402835291602001916105aa565b820191906000526020600020905b81548152906001019060200180831161058d57829003601f168201915b505050505081565b600281815481106105c257600080fd5b6000918252602090912001546001600160a01b0316905081565b336001600160a01b037f0000000000000000000000000000000000000000000000000000000000000000161461064f5760405162461bcd60e51b81526020600482015260186024820152772cb7ba9030b932903737ba103a3432903932b1b2b4bb32b960411b604482015260640161010e565b60015460ff16156106725760405162461bcd60e51b815260040161010e90610bef565b600154610100900460ff166106e05760405162461bcd60e51b815260206004820152602e60248201527f5468652063616d706169676e20646964206e6f7420726561636820746865207260448201526d195c5d5a5c995908185b5bdd5b9d60921b606482015260840161010e565b6040516001600160a01b037f000000000000000000000000000000000000000000000000000000000000000016904780156108fc02916000818181858888f19350505050158015610735573d6000803e3d6000fd5b50565b60015460ff1661078a5760405162461bcd60e51b815260206004820152601e60248201527f43616d706169676e20697320616c726561647920636c6f736564207965740000604482015260640161010e565b6001805461ff0019167f0000000000000000000000000000000000000000000000000000000000000000471015610100908102919091179182905560ff910416806107f457507f000000000000000000000000000000000000000000000000000000000000000042115b6108405760405162461bcd60e51b815260206004820152601e60248201527f5468652063616d706169676e2063616e206e6f7420626520636c6f7365640000604482015260640161010e565b6001805460ff19169055565b6000808061085d60ff851686610c5e565b9050600061086b8287610c80565b96919550909350505050565b60015460ff1680156108a857507f000000000000000000000000000000000000000000000000000000000000000042105b6108c45760405162461bcd60e51b815260040161010e90610a34565b600034116108e45760405162461bcd60e51b815260040161010e90610a5c565b7f00000000000000000000000000000000000000000000000000000000000000004711156109245760405162461bcd60e51b815260040161010e90610aa8565b3360009081526003602052604090205461097b57600280546001810182556000919091527f405787fa12a823e0f2b7631cc41b3ba8828b3321ca811111fa75cd3aa3bb5ace0180546001600160a01b031916331790555b336000908152600360205260408120805434929061099a908490610b03565b909155505060405134815233907f5d8bc849764969eb1bcc6d0a2f55999d0167c1ccec240a4f39cf664ca9c4148e9060200160405180910390a2565b60007f00000000000000000000000000000000000000000000000000000000000000004710610a055750600090565b610a2f477f0000000000000000000000000000000000000000000000000000000000000000610c80565b905090565b6020808252600e908201526d10d85b5c185a59db88195b99195960921b604082015260600190565b6020808252602c908201527f54686520646f6e6174696f6e2076616c7565206d75737420626520677265617460408201526b6572207468616e207a65726f60a01b606082015260800190565b60208082526025908201527f446f6e6174696f6e20657863656564732074686520616d6f756e742072657175604082015264195cdd195960da1b606082015260800190565b634e487b7160e01b600052601160045260246000fd5b60008219821115610b1657610b16610aed565b500190565b600060208083528351808285015260005b81811015610b4857858101830151858201604001528201610b2c565b81811115610b5a576000604083870101525b50601f01601f1916929092016040019392505050565b600060208284031215610b8257600080fd5b5035919050565b600060208284031215610b9b57600080fd5b81356001600160a01b0381168114610bb257600080fd5b9392505050565b60008060408385031215610bcc57600080fd5b82359150602083013560ff81168114610be457600080fd5b809150509250929050565b6020808252601a90820152792a34329031b0b6b830b4b3b71034b99039ba34b6361037b832b760311b604082015260600190565b600181811c90821680610c3757607f821691505b60208210811415610c5857634e487b7160e01b600052602260045260246000fd5b50919050565b600082610c7b57634e487b7160e01b600052601260045260246000fd5b500490565b600082821015610c9257610c92610aed565b50039056fea26469706673582212203d87af565468544d87616431a0b3258809f7d4338068d02fcdbca7fe93b2da7c64736f6c63430008090033",
  "immutableReferences": {
    "1651": [
      {
        "length": 32,
        "start": 696
      }
    ],
    "1653": [
      {
        "length": 32,
        "start": 804
      },
      {
        "length": 32,
        "start": 1511
      },
      {
        "length": 32,
        "start": 1773
      }
    ],
    "1657": [
      {
        "length": 32,
        "start": 313
      },
      {
        "length": 32,
        "start": 487
      },
      {
        "length": 32,
        "start": 1941
      },
      {
        "length": 32,
        "start": 2278
      },
      {
        "length": 32,
        "start": 2522
      },
      {
        "length": 32,
        "start": 2571
      }
    ],
    "1659": [
      {
        "length": 32,
        "start": 208
      },
      {
        "length": 32,
        "start": 558
      },
      {
        "length": 32,
        "start": 2002
      },
      {
        "length": 32,
        "start": 2182
      }
    ]
  },
  "source": "// SPDX-License-Identifier: MIT\npragma solidity ^0.8.9;\n\n\n/**\n * @title DonationContract\n * @dev A smart contract for accepting donations in a crowdfunding campaign.\n */\ncontract DonationContract {\n\n    //@notice: The address of the platform that deployed the contract.\n    address public immutable admistrator;\n    \n    //@notice: The address of the campaign receiver.\n    address public immutable campaignReceiver;\n    \n    //@notice: IPFS hash for campaign details.\n    string public campaignIpfs;\n    \n    //@notice: The total amount requested by the campaignReceiver for this campaign.\n    uint256 public immutable amountRequesting;\n\n    //@notice: The timestamp of the closing time of the donation.\n    uint256 public immutable campaignEndTime;\n    \n    //@notice: Indicates whether the campaign is currently open.\n    //@notice: to close campaign, it must have reach the full amount or time\n    bool public campaignOpen = true;\n\n    //@notice: true if the campaign is closed and reached the requested amount, false otherwise\n    bool public campaignSuccess = false;\n\n    //@notice Save the donators.\n    address[] public donators;\n\n    //@notice Track donations made by users\n    mapping(address => uint256) public donations;\n\n    /**\n     * @dev Emitted when a donation is received.\n     * @param sender The address of the donor.\n     * @param amount The amount of the donation.\n     */\n    event Donation(address indexed sender, uint256 amount);\n\n    /**\n     * @dev Emitted when an anonymous donation is received.\n     * @param amountToWithdraw The amount of the donation.\n     */\n    event UnknownDonation(uint256 amountToWithdraw);\n\n    /**\n     * @dev Emitted when the campaign ends.\n     * @param campaignAddress The address of the campaign\n     */\n    event CampaignEnded(address indexed campaignAddress);\n\n    // @notice: Fails when sender is not the reciever of the campaign\n    modifier onlyCampaignReceiver() {\n        require(msg.sender == campaignReceiver, \"You are not the receiver\");\n        _;\n    }\n\n    // @notice: Fails when campaign is closed or the campaignEndTime is surpassed\n    modifier whenCampaignOpen() {\n        require(campaignOpen && block.timestamp < campaignEndTime, \"Campaign ended\");\n        _;\n    }\n\n    // @notice: Fails when the donation value is zero, or it exceeds the campaign limit\n    modifier viableDonation() {\n        require(msg.value > 0, \"The donation value must be greater than zero\");\n        require(address(this).balance <= amountRequesting, \"Donation exceeds the amount requested\");\n        _;\n    }\n\n    // @notice: Fails when the timestamp is not 24h in the future\n    modifier viableTimestamp(uint256 endTime) {\n        require(endTime > block.timestamp +  60 seconds, \"Campaign must be live for at least 24 hours\");\n        _;\n    }\n\n    /**\n     * @dev Constructor to initialize the DonationContract.\n     * @notice it has to be the platform to deploy the contract \n     * @param _campaignReceiver The address of the campaign receiver.\n     * @param _campaignIpfs The IPFS hash for campaign details.\n     * @param _amountRequesting The total amount requesting in the campaign.\n     * @param _campaignEndTime The timestamp when the campaign ends.\n     */\n    constructor (\n        address _campaignReceiver,\n        string memory _campaignIpfs,\n        uint256 _amountRequesting,\n        uint256 _campaignEndTime\n    ) viableTimestamp(_campaignEndTime) {\n\n        require(_amountRequesting > 0, \"The amount requested must be greater than zero\");\n        require(msg.sender != _campaignReceiver);\n        admistrator = msg.sender;\n        campaignReceiver = _campaignReceiver;\n        campaignIpfs = _campaignIpfs;\n        amountRequesting = _amountRequesting;\n        campaignEndTime = _campaignEndTime;\n    }\n\n    /**\n     * @notice Fallback function to accept anonymous donations.\n     * @notice if after this transaction the campaign reaches its full amount requested, campaign ends\n     */\n    receive() external payable {\n        require(campaignOpen && block.timestamp < campaignEndTime, \"Campaign ended\");\n        require(msg.value > 0, \"The donation value must be greater than zero\");\n        require(address(this).balance <= amountRequesting, \"Donation exceeds the amount requested\");\n        donations[msg.sender] += msg.value;\n        emit UnknownDonation(msg.value);\n    }\n\n    /**\n     * @notice Function that allows users to make a donation.\n     * @notice if after this transaction the campaign reaches its full amount requested, campaign ends\n     */\n    function donate() external payable whenCampaignOpen viableDonation {\n        if (donations[msg.sender] == 0) {\n            donators.push(msg.sender);\n        }\n        donations[msg.sender] += msg.value;\n        emit Donation(msg.sender, msg.value);\n    }\n\n    /**\n     * @notice Closes the campaign\n     * @notice Allows campaign reciever to withdraw, if success\n     * @notice Allows donators to cashback, if not success\n     * @notice Transfers the fees to the admistrator\n     * @dev Can be called by anyone. Total amout reached can also close the campaing but does this automatically\n     */\n    function closeCampaign() external {\n        require(campaignOpen, \"Campaign is already closed yet\");\n        campaignSuccess = address(this).balance >= amountRequesting;\n        require(\n            campaignSuccess || block.timestamp > campaignEndTime,\n            \"The campaign can not be closed\");\n        campaignOpen = false;\n    }\n\n    /**\n     * @notice Function to withdraw donations by the campaign creator.\n     * Only possible if the campaign reaches its full requested amount in donations.\n     */\n    function withdrawDonations() external onlyCampaignReceiver payable {\n        require(!campaignOpen, \"The campaign is still open\");\n        require(campaignSuccess, \"The campaign did not reach the required amount\");\n        payable(campaignReceiver).transfer(address(this).balance);\n    }\n\n    /**\n     * @notice get your donation back, after the end of campaign, if it failed to reach its objective\n     * @dev If the campaign is not able to reach its full requested amount in the given time, then \n     * the donators are able to get their donations back\n     */\n    function refund() external payable {\n        require(!campaignOpen, \"The campaign is still open\");\n        require(!campaignSuccess, \"The campaign reached the required amount\");\n        uint256 donation = donations[msg.sender];\n        require(donation > 0, \"No donations to withdraw\");\n        donations[msg.sender] = 0;\n        payable(msg.sender).transfer(donation);\n    }\n\n    /**\n     * @notice this calculates the amount left after the fee and the amount that is taken with the fee\n     * in this case is the platform the suffers with the division (math floor) with the max lost \n     * beign fee - 1\n    */\n    function afterFee(uint256 amount, uint8 fee) public pure returns (uint256, uint256) {\n        uint256 amountTaken = amount / fee;\n        uint amountLeft =  amount - amountTaken;\n        return (amountLeft, amountTaken);\n    }\n\n    //@notice returns the amount left needed to reach for the campaign to succed \n    function missingBalanceToTarget() public view returns(uint256) {\n        if (address(this).balance  >= amountRequesting) {\n            return  0;\n        }\n        return amountRequesting - address(this).balance;\n    }\n}",
  "sourcePath": "/home/ghk21nznz/Prog/0-Projects/Blockchain/BootcampFullStack/Donations-NestAngular/contracts/contracts/donation.sol",
  "compiler": {
    "name": "solc",
    "version": "0.8.9+commit.e5eed63a.Emscripten.clang"
  },
  "schemaVersion": "3.4.15",
  "updatedAt": "2023-09-05T16:33:24.324Z",
  "devdoc": {
    "details": "A smart contract for accepting donations in a crowdfunding campaign.",
    "events": {
      "CampaignEnded(address)": {
        "details": "Emitted when the campaign ends.",
        "params": {
          "campaignAddress": "The address of the campaign"
        }
      },
      "Donation(address,uint256)": {
        "details": "Emitted when a donation is received.",
        "params": {
          "amount": "The amount of the donation.",
          "sender": "The address of the donor."
        }
      },
      "UnknownDonation(uint256)": {
        "details": "Emitted when an anonymous donation is received.",
        "params": {
          "amountToWithdraw": "The amount of the donation."
        }
      }
    },
    "kind": "dev",
    "methods": {
      "closeCampaign()": {
        "details": "Can be called by anyone. Total amout reached can also close the campaing but does this automatically"
      },
      "constructor": {
        "details": "Constructor to initialize the DonationContract.",
        "params": {
          "_amountRequesting": "The total amount requesting in the campaign.",
          "_campaignEndTime": "The timestamp when the campaign ends.",
          "_campaignIpfs": "The IPFS hash for campaign details.",
          "_campaignReceiver": "The address of the campaign receiver."
        }
      },
      "refund()": {
        "details": "If the campaign is not able to reach its full requested amount in the given time, then  the donators are able to get their donations back"
      }
    },
    "title": "DonationContract",
    "version": 1
  },
  "userdoc": {
    "kind": "user",
    "methods": {
      "afterFee(uint256,uint8)": {
        "notice": "this calculates the amount left after the fee and the amount that is taken with the fee in this case is the platform the suffers with the division (math floor) with the max lost  beign fee - 1"
      },
      "closeCampaign()": {
        "notice": "Closes the campaignAllows campaign reciever to withdraw, if successAllows donators to cashback, if not successTransfers the fees to the admistrator"
      },
      "constructor": {
        "notice": "it has to be the platform to deploy the contract "
      },
      "donate()": {
        "notice": "Function that allows users to make a donation.if after this transaction the campaign reaches its full amount requested, campaign ends"
      },
      "refund()": {
        "notice": "get your donation back, after the end of campaign, if it failed to reach its objective"
      },
      "withdrawDonations()": {
        "notice": "Function to withdraw donations by the campaign creator. Only possible if the campaign reaches its full requested amount in donations."
      }
    },
    "version": 1
  }
}